8=FIX.4.2\0019=42\00135=0\00149=A\00156=B\00134=12\00152=20100304-07:59:30\00110=185\001
8=FIX.4.2\0019=196\00135=X\00149=A\00156=B\00134=12\00152=20100318-03:21:11.364\001262=A\001268=2\001279=0\001269=0\001278=BID\00155=EUR/USD\001270=1.37215\00115=EUR\001271=2500000\001346=1\001279=0\001269=1\001278=OFFER\00155=EUR/USD\001270=1.37224\00115=EUR\001271=2503200\001346=1\00110=171\001
8=FIX.4.4\0019=122\00135=D\00134=215\00149=CLIENT12\00152=20100225-19:41:57.316\00156=B\0011=Marcel\00111=13346\00121=1\00140=2\00144=5\00154=1\00159=0\00160=20100225-19:39:52.020\00110=072\001
8=FIX.4.4\0019=117\00135=AD\00134=2\00149=A\00150=1\00152=20100219-14:33:32.258\00156=B\00157=M\001263=1\001568=1\001569=0\001580=1\00175=20100218\00160=20100218-00:00:00.000\00110=202\001
8=FIX.4.4\0019=94\00135=3\00134=214\00149=A\00150=U1\00152=20100304-09:42:23.130\00156=AB\001128=B1\00145=176\00158=txt\001371=15\001372=X\001373=1\00110=058\001
8=FIX.4.4\0019=70\00135=4\00149=A\00156=XYZ\00134=129\00152=20100302-19:38:21\00143=Y\00157=LOL\001123=Y\00136=175\00110=192\001
8=FIX.4.4\0019=122\00135=D\00134=215\00149=CLIENT12\00152=20100225-19:41:57.316\00156=B\0011=Marcel\00111=13346\00121=1\00140=2\00144=5\00154=1\00159=0\00160=20100225-19:39:52.020\00110=072\001
8=FIX.4.2\0019=196\00135=X\00149=A\00156=B\00134=12\00152=20100318-03:21:11.364\001262=A\001268=2\001279=0\001269=0\001278=BID\00155=EUR/USD\001270=1.37215\00115=EUR\001271=2500000\001346=1\001279=0\001269=1\001278=OFFER\00155=EUR/USD\001270=1.37224\00115=EUR\001271=2503200\001346=1\00110=171\001
8=FIX.4.2\0019=97\00135=6\00149=BKR\00156=IM\00134=14\00152=20100204-09:18:42\00123=115685\00128=N\00155=SPMI.MI\00154=2\00144=2200.75\00127=S\00125=H\00110=248\001
8=FIX.4.4\0019=122\00135=D\00134=215\00149=CLIENT12\00152=20100225-19:41:57.316\00156=B\0011=Marcel\00111=13346\00121=1\00140=2\00144=5\00154=1\00159=0\00160=20100225-19:39:52.020\00110=072\001
8=FIX.4.2\0019=42\00135=0\00149=A\00156=B\00134=12\00152=20100304-07:59:30\00110=185\001
8=FIX.4.2\0019=196\00135=X\00149=A\00156=B\00134=12\00152=20100318-03:21:11.364\001262=A\001268=2\001279=0\001269=0\001278=BID\00155=EUR/USD\001270=1.37215\00115=EUR\001271=2500000\001346=1\001279=0\001269=1\001278=OFFER\00155=EUR/USD\001270=1.37224\00115=EUR\001271=2503200\001346=1\00110=171\001
8=FIX.4.4\0019=122\00135=D\00134=215\00149=CLIENT12\00152=20100225-19:41:57.316\00156=B\0011=Marcel\00111=13346\00121=1\00140=2\00144=5\00154=1\00159=0\00160=20100225-19:39:52.020\00110=072\001
8=FIX.4.4\0019=117\00135=AD\00134=2\00149=A\00150=1\00152=20100219-14:33:32.258\00156=B\00157=M\001263=1\001568=1\001569=0\001580=1\00175=20100218\00160=20100218-00:00:00.000\00110=202\001
8=FIX.4.4\0019=94\00135=3\00134=214\00149=A\00150=U1\00152=20100304-09:42:23.130\00156=AB\001128=B1\00145=176\00158=txt\001371=15\001372=X\001373=1\00110=058\001
8=FIX.4.4\0019=70\00135=4\00149=A\00156=XYZ\00134=129\00152=20100302-19:38:21\00143=Y\00157=LOL\001123=Y\00136=175\00110=192\001
8=FIX.4.4\0019=122\00135=D\00134=215\00149=CLIENT12\00152=20100225-19:41:57.316\00156=B\0011=Marcel\00111=13346\00121=1\00140=2\00144=5\00154=1\00159=0\00160=20100225-19:39:52.020\00110=072\001
8=FIX.4.2\0019=196\00135=X\00149=A\00156=B\00134=12\00152=20100318-03:21:11.364\001262=A\001268=2\001279=0\001269=0\001278=BID\00155=EUR/USD\001270=1.37215\00115=EUR\001271=2500000\001346=1\001279=0\001269=1\001278=OFFER\00155=EUR/USD\001270=1.37224\00115=EUR\001271=2503200\001346=1\00110=171\001
8=FIX.4.2\0019=97\00135=6\00149=BKR\00156=IM\00134=14\00152=20100204-09:18:42\00123=115685\00128=N\00155=SPMI.MI\00154=2\00144=2200.75\00127=S\00125=H\00110=248\001
8=FIX.4.4\0019=122\00135=D\00134=215\00149=CLIENT12\00152=20100225-19:41:57.316\00156=B\0011=Marcel\00111=13346\00121=1\00140=2\00144=5\00154=1\00159=0\00160=20100225-19:39:52.020\00110=072\001
8=FIX.4.2\0019=42\00135=0\00149=A\00156=B\00134=12\00152=20100304-07:59:30\00110=185\001
8=FIX.4.2\0019=196\00135=X\00149=A\00156=B\00134=12\00152=20100318-03:21:11.364\001262=A\001268=2\001279=0\001269=0\001278=BID\00155=EUR/USD\001270=1.37215\00115=EUR\001271=2500000\001346=1\001279=0\001269=1\001278=OFFER\00155=EUR/USD\001270=1.37224\00115=EUR\001271=2503200\001346=1\00110=171\001
8=FIX.4.4\0019=122\00135=D\00134=215\00149=CLIENT12\00152=20100225-19:41:57.316\00156=B\0011=Marcel\00111=13346\00121=1\00140=2\00144=5\00154=1\00159=0\00160=20100225-19:39:52.020\00110=072\001
8=FIX.4.4\0019=117\00135=AD\00134=2\00149=A\00150=1\00152=20100219-14:33:32.258\00156=B\00157=M\001263=1\001568=1\001569=0\001580=1\00175=20100218\00160=20100218-00:00:00.000\00110=202\001
8=FIX.4.4\0019=94\00135=3\00134=214\00149=A\00150=U1\00152=20100304-09:42:23.130\00156=AB\001128=B1\00145=176\00158=txt\001371=15\001372=X\001373=1\00110=058\001
8=FIX.4.4\0019=70\00135=4\00149=A\00156=XYZ\00134=129\00152=20100302-19:38:21\00143=Y\00157=LOL\001123=Y\00136=175\00110=192\001
8=FIX.4.4\0019=122\00135=D\00134=215\00149=CLIENT12\00152=20100225-19:41:57.316\00156=B\0011=Marcel\00111=13346\00121=1\00140=2\00144=5\00154=1\00159=0\00160=20100225-19:39:52.020\00110=072\001
8=FIX.4.2\0019=196\00135=X\00149=A\00156=B\00134=12\00152=20100318-03:21:11.364\001262=A\001268=2\001279=0\001269=0\001278=BID\00155=EUR/USD\001270=1.37215\00115=EUR\001271=2500000\001346=1\001279=0\001269=1\001278=OFFER\00155=EUR/USD\001270=1.37224\00115=EUR\001271=2503200\001346=1\00110=171\001
8=FIX.4.2\0019=97\00135=6\00149=BKR\00156=IM\00134=14\00152=20100204-09:18:42\00123=115685\00128=N\00155=SPMI.MI\00154=2\00144=2200.75\00127=S\00125=H\00110=248\001
8=FIX.4.4\0019=122\00135=D\00134=215\00149=CLIENT12\00152=20100225-19:41:57.316\00156=B\0011=Marcel\00111=13346\00121=1\00140=2\00144=5\00154=1\00159=0\00160=20100225-19:39:52.020\00110=072\001
8=FIX.4.2\0019=42\00135=0\00149=A\00156=B\00134=12\00152=20100304-07:59:30\00110=185\001
8=FIX.4.2\0019=196\00135=X\00149=A\00156=B\00134=12\00152=20100318-03:21:11.364\001262=A\001268=2\001279=0\001269=0\001278=BID\00155=EUR/USD\001270=1.37215\00115=EUR\001271=2500000\001346=1\001279=0\001269=1\001278=OFFER\00155=EUR/USD\001270=1.37224\00115=EUR\001271=2503200\001346=1\00110=171\001
8=FIX.4.4\0019=122\00135=D\00134=215\00149=CLIENT12\00152=20100225-19:41:57.316\00156=B\0011=Marcel\00111=13346\00121=1\00140=2\00144=5\00154=1\00159=0\00160=20100225-19:39:52.020\00110=072\001
8=FIX.4.4\0019=117\00135=AD\00134=2\00149=A\00150=1\00152=20100219-14:33:32.258\00156=B\00157=M\001263=1\001568=1\001569=0\001580=1\00175=20100218\00160=20100218-00:00:00.000\00110=202\001
8=FIX.4.4\0019=94\00135=3\00134=214\00149=A\00150=U1\00152=20100304-09:42:23.130\00156=AB\001128=B1\00145=176\00158=txt\001371=15\001372=X\001373=1\00110=058\001
8=FIX.4.4\0019=70\00135=4\00149=A\00156=XYZ\00134=129\00152=20100302-19:38:21\00143=Y\00157=LOL\001123=Y\00136=175\00110=192\001
8=FIX.4.4\0019=122\00135=D\00134=215\00149=CLIENT12\00152=20100225-19:41:57.316\00156=B\0011=Marcel\00111=13346\00121=1\00140=2\00144=5\00154=1\00159=0\00160=20100225-19:39:52.020\00110=072\001
8=FIX.4.2\0019=196\00135=X\00149=A\00156=B\00134=12\00152=20100318-03:21:11.364\001262=A\001268=2\001279=0\001269=0\001278=BID\00155=EUR/USD\001270=1.37215\00115=EUR\001271=2500000\001346=1\001279=0\001269=1\001278=OFFER\00155=EUR/USD\001270=1.37224\00115=EUR\001271=2503200\001346=1\00110=171\001
8=FIX.4.2\0019=97\00135=6\00149=BKR\00156=IM\00134=14\00152=20100204-09:18:42\00123=115685\00128=N\00155=SPMI.MI\00154=2\00144=2200.75\00127=S\00125=H\00110=248\001
8=FIX.4.4\0019=122\00135=D\00134=215\00149=CLIENT12\00152=20100225-19:41:57.316\00156=B\0011=Marcel\00111=13346\00121=1\00140=2\00144=5\00154=1\00159=0\00160=20100225-19:39:52.020\00110=072\001
8=FIX.4.2\0019=42\00135=0\00149=A\00156=B\00134=12\00152=20100304-07:59:30\00110=185\001
8=FIX.4.2\0019=196\00135=X\00149=A\00156=B\00134=12\00152=20100318-03:21:11.364\001262=A\001268=2\001279=0\001269=0\001278=BID\00155=EUR/USD\001270=1.37215\00115=EUR\001271=2500000\001346=1\001279=0\001269=1\001278=OFFER\00155=EUR/USD\001270=1.37224\00115=EUR\001271=2503200\001346=1\00110=171\001
8=FIX.4.4\0019=122\00135=D\00134=215\00149=CLIENT12\00152=20100225-19:41:57.316\00156=B\0011=Marcel\00111=13346\00121=1\00140=2\00144=5\00154=1\00159=0\00160=20100225-19:39:52.020\00110=072\001
8=FIX.4.4\0019=117\00135=AD\00134=2\00149=A\00150=1\00152=20100219-14:33:32.258\00156=B\00157=M\001263=1\001568=1\001569=0\001580=1\00175=20100218\00160=20100218-00:00:00.000\00110=202\001
8=FIX.4.4\0019=94\00135=3\00134=214\00149=A\00150=U1\00152=20100304-09:42:23.130\00156=AB\001128=B1\00145=176\00158=txt\001371=15\001372=X\001373=1\00110=058\001
8=FIX.4.4\0019=70\00135=4\00149=A\00156=XYZ\00134=129\00152=20100302-19:38:21\00143=Y\00157=LOL\001123=Y\00136=175\00110=192\001
8=FIX.4.4\0019=122\00135=D\00134=215\00149=CLIENT12\00152=20100225-19:41:57.316\00156=B\0011=Marcel\00111=13346\00121=1\00140=2\00144=5\00154=1\00159=0\00160=20100225-19:39:52.020\00110=072\001
8=FIX.4.2\0019=196\00135=X\00149=A\00156=B\00134=12\00152=20100318-03:21:11.364\001262=A\001268=2\001279=0\001269=0\001278=BID\00155=EUR/USD\001270=1.37215\00115=EUR\001271=2500000\001346=1\001279=0\001269=1\001278=OFFER\00155=EUR/USD\001270=1.37224\00115=EUR\001271=2503200\001346=1\00110=171\001
8=FIX.4.2\0019=97\00135=6\00149=BKR\00156=IM\00134=14\00152=20100204-09:18:42\00123=115685\00128=N\00155=SPMI.MI\00154=2\00144=2200.75\00127=S\00125=H\00110=248\001
8=FIX.4.4\0019=122\00135=D\00134=215\00149=CLIENT12\00152=20100225-19:41:57.316\00156=B\0011=Marcel\00111=13346\00121=1\00140=2\00144=5\00154=1\00159=0\00160=20100225-19:39:52.020\00110=072\001
8=FIX.4.2\0019=42\00135=0\00149=A\00156=B\00134=12\00152=20100304-07:59:30\00110=185\001
8=FIX.4.2\0019=196\00135=X\00149=A\00156=B\00134=12\00152=20100318-03:21:11.364\001262=A\001268=2\001279=0\001269=0\001278=BID\00155=EUR/USD\001270=1.37215\00115=EUR\001271=2500000\001346=1\001279=0\001269=1\001278=OFFER\00155=EUR/USD\001270=1.37224\00115=EUR\001271=2503200\001346=1\00110=171\001
8=FIX.4.4\0019=122\00135=D\00134=215\00149=CLIENT12\00152=20100225-19:41:57.316\00156=B\0011=Marcel\00111=13346\00121=1\00140=2\00144=5\00154=1\00159=0\00160=20100225-19:39:52.020\00110=072\001
8=FIX.4.4\0019=117\00135=AD\00134=2\00149=A\00150=1\00152=20100219-14:33:32.258\00156=B\00157=M\001263=1\001568=1\001569=0\001580=1\00175=20100218\00160=20100218-00:00:00.000\00110=202\001
8=FIX.4.4\0019=94\00135=3\00134=214\00149=A\00150=U1\00152=20100304-09:42:23.130\00156=AB\001128=B1\00145=176\00158=txt\001371=15\001372=X\001373=1\00110=058\001
8=FIX.4.4\0019=70\00135=4\00149=A\00156=XYZ\00134=129\00152=20100302-19:38:21\00143=Y\00157=LOL\001123=Y\00136=175\00110=192\001
8=FIX.4.4\0019=122\00135=D\00134=215\00149=CLIENT12\00152=20100225-19:41:57.316\00156=B\0011=Marcel\00111=13346\00121=1\00140=2\00144=5\00154=1\00159=0\00160=20100225-19:39:52.020\00110=072\001
8=FIX.4.2\0019=196\00135=X\00149=A\00156=B\00134=12\00152=20100318-03:21:11.364\001262=A\001268=2\001279=0\001269=0\001278=BID\00155=EUR/USD\001270=1.37215\00115=EUR\001271=2500000\001346=1\001279=0\001269=1\001278=OFFER\00155=EUR/USD\001270=1.37224\00115=EUR\001271=2503200\001346=1\00110=171\001
8=FIX.4.2\0019=97\00135=6\00149=BKR\00156=IM\00134=14\00152=20100204-09:18:42\00123=115685\00128=N\00155=SPMI.MI\00154=2\00144=2200.75\00127=S\00125=H\00110=248\001
8=FIX.4.4\0019=122\00135=D\00134=215\00149=CLIENT12\00152=20100225-19:41:57.316\00156=B\0011=Marcel\00111=13346\00121=1\00140=2\00144=5\00154=1\00159=0\00160=20100225-19:39:52.020\00110=072\001
8=FIX.4.2\0019=42\00135=0\00149=A\00156=B\00134=12\00152=20100304-07:59:30\00110=185\001
8=FIX.4.2\0019=196\00135=X\00149=A\00156=B\00134=12\00152=20100318-03:21:11.364\001262=A\001268=2\001279=0\001269=0\001278=BID\00155=EUR/USD\001270=1.37215\00115=EUR\001271=2500000\001346=1\001279=0\001269=1\001278=OFFER\00155=EUR/USD\001270=1.37224\00115=EUR\001271=2503200\001346=1\00110=171\001
8=FIX.4.4\0019=122\00135=D\00134=215\00149=CLIENT12\00152=20100225-19:41:57.316\00156=B\0011=Marcel\00111=13346\00121=1\00140=2\00144=5\00154=1\00159=0\00160=20100225-19:39:52.020\00110=072\001
8=FIX.4.4\0019=117\00135=AD\00134=2\00149=A\00150=1\00152=20100219-14:33:32.258\00156=B\00157=M\001263=1\001568=1\001569=0\001580=1\00175=20100218\00160=20100218-00:00:00.000\00110=202\001
8=FIX.4.4\0019=94\00135=3\00134=214\00149=A\00150=U1\00152=20100304-09:42:23.130\00156=AB\001128=B1\00145=176\00158=txt\001371=15\001372=X\001373=1\00110=058\001
8=FIX.4.4\0019=70\00135=4\00149=A\00156=XYZ\00134=129\00152=20100302-19:38:21\00143=Y\00157=LOL\001123=Y\00136=175\00110=192\001
8=FIX.4.4\0019=122\00135=D\00134=215\00149=CLIENT12\00152=20100225-19:41:57.316\00156=B\0011=Marcel\00111=13346\00121=1\00140=2\00144=5\00154=1\00159=0\00160=20100225-19:39:52.020\00110=072\001
8=FIX.4.2\0019=196\00135=X\00149=A\00156=B\00134=12\00152=20100318-03:21:11.364\001262=A\001268=2\001279=0\001269=0\001278=BID\00155=EUR/USD\001270=1.37215\00115=EUR\001271=2500000\001346=1\001279=0\001269=1\001278=OFFER\00155=EUR/USD\001270=1.37224\00115=EUR\001271=2503200\001346=1\00110=171\001
8=FIX.4.2\0019=97\00135=6\00149=BKR\00156=IM\00134=14\00152=20100204-09:18:42\00123=115685\00128=N\00155=SPMI.MI\00154=2\00144=2200.75\00127=S\00125=H\00110=248\001
8=FIX.4.4\0019=122\00135=D\00134=215\00149=CLIENT12\00152=20100225-19:41:57.316\00156=B\0011=Marcel\00111=13346\00121=1\00140=2\00144=5\00154=1\00159=0\00160=20100225-19:39:52.020\00110=072\001
8=FIX.4.2\0019=42\00135=0\00149=A\00156=B\00134=12\00152=20100304-07:59:30\00110=185\001
8=FIX.4.2\0019=196\00135=X\00149=A\00156=B\00134=12\00152=20100318-03:21:11.364\001262=A\001268=2\001279=0\001269=0\001278=BID\00155=EUR/USD\001270=1.37215\00115=EUR\001271=2500000\001346=1\001279=0\001269=1\001278=OFFER\00155=EUR/USD\001270=1.37224\00115=EUR\001271=2503200\001346=1\00110=171\001
8=FIX.4.4\0019=122\00135=D\00134=215\00149=CLIENT12\00152=20100225-19:41:57.316\00156=B\0011=Marcel\00111=13346\00121=1\00140=2\00144=5\00154=1\00159=0\00160=20100225-19:39:52.020\00110=072\001
8=FIX.4.4\0019=117\00135=AD\00134=2\00149=A\00150=1\00152=20100219-14:33:32.258\00156=B\00157=M\001263=1\001568=1\001569=0\001580=1\00175=20100218\00160=20100218-00:00:00.000\00110=202\001
8=FIX.4.4\0019=94\00135=3\00134=214\00149=A\00150=U1\00152=20100304-09:42:23.130\00156=AB\001128=B1\00145=176\00158=txt\001371=15\001372=X\001373=1\00110=058\001
8=FIX.4.4\0019=70\00135=4\00149=A\00156=XYZ\00134=129\00152=20100302-19:38:21\00143=Y\00157=LOL\001123=Y\00136=175\00110=192\001
8=FIX.4.4\0019=122\00135=D\00134=215\00149=CLIENT12\00152=20100225-19:41:57.316\00156=B\0011=Marcel\00111=13346\00121=1\00140=2\00144=5\00154=1\00159=0\00160=20100225-19:39:52.020\00110=072\001
8=FIX.4.2\0019=196\00135=X\00149=A\00156=B\00134=12\00152=20100318-03:21:11.364\001262=A\001268=2\001279=0\001269=0\001278=BID\00155=EUR/USD\001270=1.37215\00115=EUR\001271=2500000\001346=1\001279=0\001269=1\001278=OFFER\00155=EUR/USD\001270=1.37224\00115=EUR\001271=2503200\001346=1\00110=171\001
8=FIX.4.2\0019=97\00135=6\00149=BKR\00156=IM\00134=14\00152=20100204-09:18:42\00123=115685\00128=N\00155=SPMI.MI\00154=2\00144=2200.75\00127=S\00125=H\00110=248\001
8=FIX.4.4\0019=122\00135=D\00134=215\00149=CLIENT12\00152=20100225-19:41:57.316\00156=B\0011=Marcel\00111=13346\00121=1\00140=2\00144=5\00154=1\00159=0\00160=20100225-19:39:52.020\00110=072\001
8=FIX.4.2\0019=42\00135=0\00149=A\00156=B\00134=12\00152=20100304-07:59:30\00110=185\001
8=FIX.4.2\0019=196\00135=X\00149=A\00156=B\00134=12\00152=20100318-03:21:11.364\001262=A\001268=2\001279=0\001269=0\001278=BID\00155=EUR/USD\001270=1.37215\00115=EUR\001271=2500000\001346=1\001279=0\001269=1\001278=OFFER\00155=EUR/USD\001270=1.37224\00115=EUR\001271=2503200\001346=1\00110=171\001
8=FIX.4.4\0019=122\00135=D\00134=215\00149=CLIENT12\00152=20100225-19:41:57.316\00156=B\0011=Marcel\00111=13346\00121=1\00140=2\00144=5\00154=1\00159=0\00160=20100225-19:39:52.020\00110=072\001
8=FIX.4.4\0019=117\00135=AD\00134=2\00149=A\00150=1\00152=20100219-14:33:32.258\00156=B\00157=M\001263=1\001568=1\001569=0\001580=1\00175=20100218\00160=20100218-00:00:00.000\00110=202\001
8=FIX.4.4\0019=94\00135=3\00134=214\00149=A\00150=U1\00152=20100304-09:42:23.130\00156=AB\001128=B1\00145=176\00158=txt\001371=15\001372=X\001373=1\00110=058\001
8=FIX.4.4\0019=70\00135=4\00149=A\00156=XYZ\00134=129\00152=20100302-19:38:21\00143=Y\00157=LOL\001123=Y\00136=175\00110=192\001
8=FIX.4.4\0019=122\00135=D\00134=215\00149=CLIENT12\00152=20100225-19:41:57.316\00156=B\0011=Marcel\00111=13346\00121=1\00140=2\00144=5\00154=1\00159=0\00160=20100225-19:39:52.020\00110=072\001
8=FIX.4.2\0019=196\00135=X\00149=A\00156=B\00134=12\00152=20100318-03:21:11.364\001262=A\001268=2\001279=0\001269=0\001278=BID\00155=EUR/USD\001270=1.37215\00115=EUR\001271=2500000\001346=1\001279=0\001269=1\001278=OFFER\00155=EUR/USD\001270=1.37224\00115=EUR\001271=2503200\001346=1\00110=171\001
8=FIX.4.2\0019=97\00135=6\00149=BKR\00156=IM\00134=14\00152=20100204-09:18:42\00123=115685\00128=N\00155=SPMI.MI\00154=2\00144=2200.75\00127=S\00125=H\00110=248\001
8=FIX.4.4\0019=122\00135=D\00134=215\00149=CLIENT12\00152=20100225-19:41:57.316\00156=B\0011=Marcel\00111=13346\00121=1\00140=2\00144=5\00154=1\00159=0\00160=20100225-19:39:52.020\00110=072\001
8=FIX.4.2\0019=42\00135=0\00149=A\00156=B\00134=12\00152=20100304-07:59:30\00110=185\001
8=FIX.4.2\0019=196\00135=X\00149=A\00156=B\00134=12\00152=20100318-03:21:11.364\001262=A\001268=2\001279=0\001269=0\001278=BID\00155=EUR/USD\001270=1.37215\00115=EUR\001271=2500000\001346=1\001279=0\001269=1\001278=OFFER\00155=EUR/USD\001270=1.37224\00115=EUR\001271=2503200\001346=1\00110=171\001
8=FIX.4.4\0019=122\00135=D\00134=215\00149=CLIENT12\00152=20100225-19:41:57.316\00156=B\0011=Marcel\00111=13346\00121=1\00140=2\00144=5\00154=1\00159=0\00160=20100225-19:39:52.020\00110=072\001
8=FIX.4.4\0019=117\00135=AD\00134=2\00149=A\00150=1\00152=20100219-14:33:32.258\00156=B\00157=M\001263=1\001568=1\001569=0\001580=1\00175=20100218\00160=20100218-00:00:00.000\00110=202\001
8=FIX.4.4\0019=94\00135=3\00134=214\00149=A\00150=U1\00152=20100304-09:42:23.130\00156=AB\001128=B1\00145=176\00158=txt\001371=15\001372=X\001373=1\00110=058\001
8=FIX.4.4\0019=70\00135=4\00149=A\00156=XYZ\00134=129\00152=20100302-19:38:21\00143=Y\00157=LOL\001123=Y\00136=175\00110=192\001
8=FIX.4.4\0019=122\00135=D\00134=215\00149=CLIENT12\00152=20100225-19:41:57.316\00156=B\0011=Marcel\00111=13346\00121=1\00140=2\00144=5\00154=1\00159=0\00160=20100225-19:39:52.020\00110=072\001
8=FIX.4.2\0019=196\00135=X\00149=A\00156=B\00134=12\00152=20100318-03:21:11.364\001262=A\001268=2\001279=0\001269=0\001278=BID\00155=EUR/USD\001270=1.37215\00115=EUR\001271=2500000\001346=1\001279=0\001269=1\001278=OFFER\00155=EUR/USD\001270=1.37224\00115=EUR\001271=2503200\001346=1\00110=171\001
8=FIX.4.2\0019=97\00135=6\00149=BKR\00156=IM\00134=14\00152=20100204-09:18:42\00123=115685\00128=N\00155=SPMI.MI\00154=2\00144=2200.75\00127=S\00125=H\00110=248\001
8=FIX.4.4\0019=122\00135=D\00134=215\00149=CLIENT12\00152=20100225-19:41:57.316\00156=B\0011=Marcel\00111=13346\00121=1\00140=2\00144=5\00154=1\00159=0\00160=20100225-19:39:52.020\00110=072\001
8=FIX.4.2\0019=42\00135=0\00149=A\00156=B\00134=12\00152=20100304-07:59:30\00110=185\001
8=FIX.4.2\0019=196\00135=X\00149=A\00156=B\00134=12\00152=20100318-03:21:11.364\001262=A\001268=2\001279=0\001269=0\001278=BID\00155=EUR/USD\001270=1.37215\00115=EUR\001271=2500000\001346=1\001279=0\001269=1\001278=OFFER\00155=EUR/USD\001270=1.37224\00115=EUR\001271=2503200\001346=1\00110=171\001
8=FIX.4.4\0019=122\00135=D\00134=215\00149=CLIENT12\00152=20100225-19:41:57.316\00156=B\0011=Marcel\00111=13346\00121=1\00140=2\00144=5\00154=1\00159=0\00160=20100225-19:39:52.020\00110=072\001
8=FIX.4.4\0019=117\00135=AD\00134=2\00149=A\00150=1\00152=20100219-14:33:32.258\00156=B\00157=M\001263=1\001568=1\001569=0\001580=1\00175=20100218\00160=20100218-00:00:00.000\00110=202\001
8=FIX.4.4\0019=94\00135=3\00134=214\00149=A\00150=U1\00152=20100304-09:42:23.130\00156=AB\001128=B1\00145=176\00158=txt\001371=15\001372=X\001373=1\00110=058\001
8=FIX.4.4\0019=70\00135=4\00149=A\00156=XYZ\00134=129\00152=20100302-19:38:21\00143=Y\00157=LOL\001123=Y\00136=175\00110=192\001
8=FIX.4.4\0019=122\00135=D\00134=215\00149=CLIENT12\00152=20100225-19:41:57.316\00156=B\0011=Marcel\00111=13346\00121=1\00140=2\00144=5\00154=1\00159=0\00160=20100225-19:39:52.020\00110=072\001
8=FIX.4.2\0019=196\00135=X\00149=A\00156=B\00134=12\00152=20100318-03:21:11.364\001262=A\001268=2\001279=0\001269=0\001278=BID\00155=EUR/USD\001270=1.37215\00115=EUR\001271=2500000\001346=1\001279=0\001269=1\001278=OFFER\00155=EUR/USD\001270=1.37224\00115=EUR\001271=2503200\001346=1\00110=171\001
8=FIX.4.2\0019=97\00135=6\00149=BKR\00156=IM\00134=14\00152=20100204-09:18:42\00123=115685\00128=N\00155=SPMI.MI\00154=2\00144=2200.75\00127=S\00125=H\00110=248\001
8=FIX.4.4\0019=122\00135=D\00134=215\00149=CLIENT12\00152=20100225-19:41:57.316\00156=B\0011=Marcel\00111=13346\00121=1\00140=2\00144=5\00154=1\00159=0\00160=20100225-19:39:52.020\00110=072\001
8=FIX.4.2\0019=42\00135=0\00149=A\00156=B\00134=12\00152=20100304-07:59:30\00110=185\001
8=FIX.4.2\0019=196\00135=X\00149=A\00156=B\00134=12\00152=20100318-03:21:11.364\001262=A\001268=2\001279=0\001269=0\001278=BID\00155=EUR/USD\001270=1.37215\00115=EUR\001271=2500000\001346=1\001279=0\001269=1\001278=OFFER\00155=EUR/USD\001270=1.37224\00115=EUR\001271=2503200\001346=1\00110=171\001
8=FIX.4.4\0019=122\00135=D\00134=215\00149=CLIENT12\00152=20100225-19:41:57.316\00156=B\0011=Marcel\00111=13346\00121=1\00140=2\00144=5\00154=1\00159=0\00160=20100225-19:39:52.020\00110=072\001
8=FIX.4.4\0019=117\00135=AD\00134=2\00149=A\00150=1\00152=20100219-14:33:32.258\00156=B\00157=M\001263=1\001568=1\001569=0\001580=1\00175=20100218\00160=20100218-00:00:00.000\00110=202\001
8=FIX.4.4\0019=94\00135=3\00134=214\00149=A\00150=U1\00152=20100304-09:42:23.130\00156=AB\001128=B1\00145=176\00158=txt\001371=15\001372=X\001373=1\00110=058\001
8=FIX.4.4\0019=70\00135=4\00149=A\00156=XYZ\00134=129\00152=20100302-19:38:21\00143=Y\00157=LOL\001123=Y\00136=175\00110=192\001
8=FIX.4.4\0019=122\00135=D\00134=215\00149=CLIENT12\00152=20100225-19:41:57.316\00156=B\0011=Marcel\00111=13346\00121=1\00140=2\00144=5\00154=1\00159=0\00160=20100225-19:39:52.020\00110=072\001
8=FIX.4.2\0019=196\00135=X\00149=A\00156=B\00134=12\00152=20100318-03:21:11.364\001262=A\001268=2\001279=0\001269=0\001278=BID\00155=EUR/USD\001270=1.37215\00115=EUR\001271=2500000\001346=1\001279=0\001269=1\001278=OFFER\00155=EUR/USD\001270=1.37224\00115=EUR\001271=2503200\001346=1\00110=171\001
8=FIX.4.2\0019=97\00135=6\00149=BKR\00156=IM\00134=14\00152=20100204-09:18:42\00123=115685\00128=N\00155=SPMI.MI\00154=2\00144=2200.75\00127=S\00125=H\00110=248\001
8=FIX.4.4\0019=122\00135=D\00134=215\00149=CLIENT12\00152=20100225-19:41:57.316\00156=B\0011=Marcel\00111=13346\00121=1\00140=2\00144=5\00154=1\00159=0\00160=20100225-19:39:52.020\00110=072\001
8=FIX.4.2\0019=42\00135=0\00149=A\00156=B\00134=12\00152=20100304-07:59:30\00110=185\001
8=FIX.4.2\0019=196\00135=X\00149=A\00156=B\00134=12\00152=20100318-03:21:11.364\001262=A\001268=2\001279=0\001269=0\001278=BID\00155=EUR/USD\001270=1.37215\00115=EUR\001271=2500000\001346=1\001279=0\001269=1\001278=OFFER\00155=EUR/USD\001270=1.37224\00115=EUR\001271=2503200\001346=1\00110=171\001
8=FIX.4.4\0019=122\00135=D\00134=215\00149=CLIENT12\00152=20100225-19:41:57.316\00156=B\0011=Marcel\00111=13346\00121=1\00140=2\00144=5\00154=1\00159=0\00160=20100225-19:39:52.020\00110=072\001
8=FIX.4.4\0019=117\00135=AD\00134=2\00149=A\00150=1\00152=20100219-14:33:32.258\00156=B\00157=M\001263=1\001568=1\001569=0\001580=1\00175=20100218\00160=20100218-00:00:00.000\00110=202\001
8=FIX.4.4\0019=94\00135=3\00134=214\00149=A\00150=U1\00152=20100304-09:42:23.130\00156=AB\001128=B1\00145=176\00158=txt\001371=15\001372=X\001373=1\00110=058\001
8=FIX.4.4\0019=70\00135=4\00149=A\00156=XYZ\00134=129\00152=20100302-19:38:21\00143=Y\00157=LOL\001123=Y\00136=175\00110=192\001
8=FIX.4.4\0019=122\00135=D\00134=215\00149=CLIENT12\00152=20100225-19:41:57.316\00156=B\0011=Marcel\00111=13346\00121=1\00140=2\00144=5\00154=1\00159=0\00160=20100225-19:39:52.020\00110=072\001
8=FIX.4.2\0019=196\00135=X\00149=A\00156=B\00134=12\00152=20100318-03:21:11.364\001262=A\001268=2\001279=0\001269=0\001278=BID\00155=EUR/USD\001270=1.37215\00115=EUR\001271=2500000\001346=1\001279=0\001269=1\001278=OFFER\00155=EUR/USD\001270=1.37224\00115=EUR\001271=2503200\001346=1\00110=171\001
8=FIX.4.2\0019=97\00135=6\00149=BKR\00156=IM\00134=14\00152=20100204-09:18:42\00123=115685\00128=N\00155=SPMI.MI\00154=2\00144=2200.75\00127=S\00125=H\00110=248\001
8=FIX.4.4\0019=122\00135=D\00134=215\00149=CLIENT12\00152=20100225-19:41:57.316\00156=B\0011=Marcel\00111=13346\00121=1\00140=2\00144=5\00154=1\00159=0\00160=20100225-19:39:52.020\00110=072\001
