8=FIX.4.4|9=42|35=0|49=A|56=B|34=1|52=20100304-07:59:30|10=185|
8=FIX.4.4|9=196|35=X|49=A|56=B|34=2|52=20100318-03:21:11.364|262=A|268=2|279=0|269=0|278=BID|55=EUR/USD|270=1.37215|15=EUR|271=2500000|346=1|279=0|269=1|278=OFFER|55=EUR/USD|270=1.37224|15=EUR|271=2503200|346=1|10=171|
8=FIX.4.4|9=122|35=D|34=3|49=CLIENT12|52=20100225-19:41:57.316|56=B|1=Marcel|11=13346|21=1|40=2|44=5|54=1|59=0|60=20100225-19:39:52.020|10=072|
8=FIX.4.4|9=117|35=AD|34=4|49=A|50=1|52=20100219-14:33:32.258|56=B|57=M|263=1|568=1|569=0|580=1|75=20100218|60=20100218-00:00:00.000|10=202|
8=FIX.4.4|9=94|35=3|34=5|49=A|50=U1|52=20100304-09:42:23.130|56=AB|128=B1|45=176|58=txt|371=15|372=X|373=1|10=058|
8=FIX.4.4|9=70|35=4|49=A|56=XYZ|34=6|52=20100302-19:38:21|43=Y|57=LOL|123=Y|36=175|10=192|
8=FIX.4.4|9=122|35=D|34=7|49=CLIENT12|52=20100225-19:41:57.316|56=B|1=Marcel|11=13346|21=1|40=2|44=5|54=1|59=0|60=20100225-19:39:52.020|10=072|
8=FIX.4.4|9=196|35=X|49=A|56=B|34=8|52=20100318-03:21:11.364|262=A|268=2|279=0|269=0|278=BID|55=EUR/USD|270=1.37215|15=EUR|271=2500000|346=1|279=0|269=1|278=OFFER|55=EUR/USD|270=1.37224|15=EUR|271=2503200|346=1|10=171|
8=FIX.4.4|9=97|35=6|49=BKR|56=IM|34=9|52=20100204-09:18:42|23=115685|28=N|55=SPMI.MI|54=2|44=2200.75|27=S|25=H|10=248|
8=FIX.4.4|9=122|35=D|34=10|49=CLIENT12|52=20100225-19:41:57.316|56=B|1=Marcel|11=13346|21=1|40=2|44=5|54=1|59=0|60=20100225-19:39:52.020|10=072|
8=FIX.4.4|9=42|35=0|49=A|56=B|34=11|52=20100304-07:59:30|10=185|
8=FIX.4.4|9=196|35=X|49=A|56=B|34=12|52=20100318-03:21:11.364|262=A|268=2|279=0|269=0|278=BID|55=EUR/USD|270=1.37215|15=EUR|271=2500000|346=1|279=0|269=1|278=OFFER|55=EUR/USD|270=1.37224|15=EUR|271=2503200|346=1|10=171|
8=FIX.4.4|9=122|35=D|34=13|49=CLIENT12|52=20100225-19:41:57.316|56=B|1=Marcel|11=13346|21=1|40=2|44=5|54=1|59=0|60=20100225-19:39:52.020|10=072|
8=FIX.4.4|9=117|35=AD|34=14|49=A|50=1|52=20100219-14:33:32.258|56=B|57=M|263=1|568=1|569=0|580=1|75=20100218|60=20100218-00:00:00.000|10=202|
8=FIX.4.4|9=94|35=3|34=15|49=A|50=U1|52=20100304-09:42:23.130|56=AB|128=B1|45=176|58=txt|371=15|372=X|373=1|10=058|
8=FIX.4.4|9=70|35=4|49=A|56=XYZ|34=16|52=20100302-19:38:21|43=Y|57=LOL|123=Y|36=175|10=192|
8=FIX.4.4|9=122|35=D|34=17|49=CLIENT12|52=20100225-19:41:57.316|56=B|1=Marcel|11=13346|21=1|40=2|44=5|54=1|59=0|60=20100225-19:39:52.020|10=072|
8=FIX.4.4|9=196|35=X|49=A|56=B|34=18|52=20100318-03:21:11.364|262=A|268=2|279=0|269=0|278=BID|55=EUR/USD|270=1.37215|15=EUR|271=2500000|346=1|279=0|269=1|278=OFFER|55=EUR/USD|270=1.37224|15=EUR|271=2503200|346=1|10=171|
8=FIX.4.4|9=97|35=6|49=BKR|56=IM|34=19|52=20100204-09:18:42|23=115685|28=N|55=SPMI.MI|54=2|44=2200.75|27=S|25=H|10=248|
8=FIX.4.4|9=122|35=D|34=20|49=CLIENT12|52=20100225-19:41:57.316|56=B|1=Marcel|11=13346|21=1|40=2|44=5|54=1|59=0|60=20100225-19:39:52.020|10=072|
8=FIX.4.4|9=42|35=0|49=A|56=B|34=21|52=20100304-07:59:30|10=185|
8=FIX.4.4|9=196|35=X|49=A|56=B|34=22|52=20100318-03:21:11.364|262=A|268=2|279=0|269=0|278=BID|55=EUR/USD|270=1.37215|15=EUR|271=2500000|346=1|279=0|269=1|278=OFFER|55=EUR/USD|270=1.37224|15=EUR|271=2503200|346=1|10=171|
8=FIX.4.4|9=122|35=D|34=23|49=CLIENT12|52=20100225-19:41:57.316|56=B|1=Marcel|11=13346|21=1|40=2|44=5|54=1|59=0|60=20100225-19:39:52.020|10=072|
8=FIX.4.4|9=117|35=AD|34=24|49=A|50=1|52=20100219-14:33:32.258|56=B|57=M|263=1|568=1|569=0|580=1|75=20100218|60=20100218-00:00:00.000|10=202|
8=FIX.4.4|9=94|35=3|34=25|49=A|50=U1|52=20100304-09:42:23.130|56=AB|128=B1|45=176|58=txt|371=15|372=X|373=1|10=058|
8=FIX.4.4|9=70|35=4|49=A|56=XYZ|34=26|52=20100302-19:38:21|43=Y|57=LOL|123=Y|36=175|10=192|
8=FIX.4.4|9=122|35=D|34=27|49=CLIENT12|52=20100225-19:41:57.316|56=B|1=Marcel|11=13346|21=1|40=2|44=5|54=1|59=0|60=20100225-19:39:52.020|10=072|
8=FIX.4.4|9=196|35=X|49=A|56=B|34=28|52=20100318-03:21:11.364|262=A|268=2|279=0|269=0|278=BID|55=EUR/USD|270=1.37215|15=EUR|271=2500000|346=1|279=0|269=1|278=OFFER|55=EUR/USD|270=1.37224|15=EUR|271=2503200|346=1|10=171|
8=FIX.4.4|9=97|35=6|49=BKR|56=IM|34=29|52=20100204-09:18:42|23=115685|28=N|55=SPMI.MI|54=2|44=2200.75|27=S|25=H|10=248|
8=FIX.4.4|9=122|35=D|34=30|49=CLIENT12|52=20100225-19:41:57.316|56=B|1=Marcel|11=13346|21=1|40=2|44=5|54=1|59=0|60=20100225-19:39:52.020|10=072|
8=FIX.4.4|9=42|35=0|49=A|56=B|34=31|52=20100304-07:59:30|10=185|
8=FIX.4.4|9=196|35=X|49=A|56=B|34=32|52=20100318-03:21:11.364|262=A|268=2|279=0|269=0|278=BID|55=EUR/USD|270=1.37215|15=EUR|271=2500000|346=1|279=0|269=1|278=OFFER|55=EUR/USD|270=1.37224|15=EUR|271=2503200|346=1|10=171|
8=FIX.4.4|9=122|35=D|34=33|49=CLIENT12|52=20100225-19:41:57.316|56=B|1=Marcel|11=13346|21=1|40=2|44=5|54=1|59=0|60=20100225-19:39:52.020|10=072|
8=FIX.4.4|9=117|35=AD|34=34|49=A|50=1|52=20100219-14:33:32.258|56=B|57=M|263=1|568=1|569=0|580=1|75=20100218|60=20100218-00:00:00.000|10=202|
8=FIX.4.4|9=94|35=3|34=35|49=A|50=U1|52=20100304-09:42:23.130|56=AB|128=B1|45=176|58=txt|371=15|372=X|373=1|10=058|
8=FIX.4.4|9=70|35=4|49=A|56=XYZ|34=36|52=20100302-19:38:21|43=Y|57=LOL|123=Y|36=175|10=192|
8=FIX.4.4|9=122|35=D|34=37|49=CLIENT12|52=20100225-19:41:57.316|56=B|1=Marcel|11=13346|21=1|40=2|44=5|54=1|59=0|60=20100225-19:39:52.020|10=072|
8=FIX.4.4|9=196|35=X|49=A|56=B|34=38|52=20100318-03:21:11.364|262=A|268=2|279=0|269=0|278=BID|55=EUR/USD|270=1.37215|15=EUR|271=2500000|346=1|279=0|269=1|278=OFFER|55=EUR/USD|270=1.37224|15=EUR|271=2503200|346=1|10=171|
8=FIX.4.4|9=97|35=6|49=BKR|56=IM|34=39|52=20100204-09:18:42|23=115685|28=N|55=SPMI.MI|54=2|44=2200.75|27=S|25=H|10=248|
8=FIX.4.4|9=122|35=D|34=40|49=CLIENT12|52=20100225-19:41:57.316|56=B|1=Marcel|11=13346|21=1|40=2|44=5|54=1|59=0|60=20100225-19:39:52.020|10=072|
8=FIX.4.4|9=42|35=0|49=A|56=B|34=41|52=20100304-07:59:30|10=185|
8=FIX.4.4|9=196|35=X|49=A|56=B|34=42|52=20100318-03:21:11.364|262=A|268=2|279=0|269=0|278=BID|55=EUR/USD|270=1.37215|15=EUR|271=2500000|346=1|279=0|269=1|278=OFFER|55=EUR/USD|270=1.37224|15=EUR|271=2503200|346=1|10=171|
8=FIX.4.4|9=122|35=D|34=43|49=CLIENT12|52=20100225-19:41:57.316|56=B|1=Marcel|11=13346|21=1|40=2|44=5|54=1|59=0|60=20100225-19:39:52.020|10=072|
8=FIX.4.4|9=117|35=AD|34=44|49=A|50=1|52=20100219-14:33:32.258|56=B|57=M|263=1|568=1|569=0|580=1|75=20100218|60=20100218-00:00:00.000|10=202|
8=FIX.4.4|9=94|35=3|34=45|49=A|50=U1|52=20100304-09:42:23.130|56=AB|128=B1|45=176|58=txt|371=15|372=X|373=1|10=058|
8=FIX.4.4|9=70|35=4|49=A|56=XYZ|34=46|52=20100302-19:38:21|43=Y|57=LOL|123=Y|36=175|10=192|
8=FIX.4.4|9=122|35=D|34=47|49=CLIENT12|52=20100225-19:41:57.316|56=B|1=Marcel|11=13346|21=1|40=2|44=5|54=1|59=0|60=20100225-19:39:52.020|10=072|
8=FIX.4.4|9=196|35=X|49=A|56=B|34=48|52=20100318-03:21:11.364|262=A|268=2|279=0|269=0|278=BID|55=EUR/USD|270=1.37215|15=EUR|271=2500000|346=1|279=0|269=1|278=OFFER|55=EUR/USD|270=1.37224|15=EUR|271=2503200|346=1|10=171|
8=FIX.4.4|9=97|35=6|49=BKR|56=IM|34=49|52=20100204-09:18:42|23=115685|28=N|55=SPMI.MI|54=2|44=2200.75|27=S|25=H|10=248|
8=FIX.4.4|9=122|35=D|34=50|49=CLIENT12|52=20100225-19:41:57.316|56=B|1=Marcel|11=13346|21=1|40=2|44=5|54=1|59=0|60=20100225-19:39:52.020|10=072|
8=FIX.4.4|9=42|35=0|49=A|56=B|34=51|52=20100304-07:59:30|10=185|
8=FIX.4.4|9=196|35=X|49=A|56=B|34=52|52=20100318-03:21:11.364|262=A|268=2|279=0|269=0|278=BID|55=EUR/USD|270=1.37215|15=EUR|271=2500000|346=1|279=0|269=1|278=OFFER|55=EUR/USD|270=1.37224|15=EUR|271=2503200|346=1|10=171|
8=FIX.4.4|9=122|35=D|34=53|49=CLIENT12|52=20100225-19:41:57.316|56=B|1=Marcel|11=13346|21=1|40=2|44=5|54=1|59=0|60=20100225-19:39:52.020|10=072|
8=FIX.4.4|9=117|35=AD|34=54|49=A|50=1|52=20100219-14:33:32.258|56=B|57=M|263=1|568=1|569=0|580=1|75=20100218|60=20100218-00:00:00.000|10=202|
8=FIX.4.4|9=94|35=3|34=55|49=A|50=U1|52=20100304-09:42:23.130|56=AB|128=B1|45=176|58=txt|371=15|372=X|373=1|10=058|
8=FIX.4.4|9=70|35=4|49=A|56=XYZ|34=56|52=20100302-19:38:21|43=Y|57=LOL|123=Y|36=175|10=192|
8=FIX.4.4|9=122|35=D|34=57|49=CLIENT12|52=20100225-19:41:57.316|56=B|1=Marcel|11=13346|21=1|40=2|44=5|54=1|59=0|60=20100225-19:39:52.020|10=072|
8=FIX.4.4|9=196|35=X|49=A|56=B|34=58|52=20100318-03:21:11.364|262=A|268=2|279=0|269=0|278=BID|55=EUR/USD|270=1.37215|15=EUR|271=2500000|346=1|279=0|269=1|278=OFFER|55=EUR/USD|270=1.37224|15=EUR|271=2503200|346=1|10=171|
8=FIX.4.4|9=97|35=6|49=BKR|56=IM|34=59|52=20100204-09:18:42|23=115685|28=N|55=SPMI.MI|54=2|44=2200.75|27=S|25=H|10=248|
8=FIX.4.4|9=122|35=D|34=60|49=CLIENT12|52=20100225-19:41:57.316|56=B|1=Marcel|11=13346|21=1|40=2|44=5|54=1|59=0|60=20100225-19:39:52.020|10=072|
8=FIX.4.4|9=42|35=0|49=A|56=B|34=61|52=20100304-07:59:30|10=185|
8=FIX.4.4|9=196|35=X|49=A|56=B|34=62|52=20100318-03:21:11.364|262=A|268=2|279=0|269=0|278=BID|55=EUR/USD|270=1.37215|15=EUR|271=2500000|346=1|279=0|269=1|278=OFFER|55=EUR/USD|270=1.37224|15=EUR|271=2503200|346=1|10=171|
8=FIX.4.4|9=122|35=D|34=63|49=CLIENT12|52=20100225-19:41:57.316|56=B|1=Marcel|11=13346|21=1|40=2|44=5|54=1|59=0|60=20100225-19:39:52.020|10=072|
8=FIX.4.4|9=117|35=AD|34=64|49=A|50=1|52=20100219-14:33:32.258|56=B|57=M|263=1|568=1|569=0|580=1|75=20100218|60=20100218-00:00:00.000|10=202|
8=FIX.4.4|9=94|35=3|34=65|49=A|50=U1|52=20100304-09:42:23.130|56=AB|128=B1|45=176|58=txt|371=15|372=X|373=1|10=058|
8=FIX.4.4|9=70|35=4|49=A|56=XYZ|34=66|52=20100302-19:38:21|43=Y|57=LOL|123=Y|36=175|10=192|
8=FIX.4.4|9=122|35=D|34=67|49=CLIENT12|52=20100225-19:41:57.316|56=B|1=Marcel|11=13346|21=1|40=2|44=5|54=1|59=0|60=20100225-19:39:52.020|10=072|
8=FIX.4.4|9=196|35=X|49=A|56=B|34=68|52=20100318-03:21:11.364|262=A|268=2|279=0|269=0|278=BID|55=EUR/USD|270=1.37215|15=EUR|271=2500000|346=1|279=0|269=1|278=OFFER|55=EUR/USD|270=1.37224|15=EUR|271=2503200|346=1|10=171|
8=FIX.4.4|9=97|35=6|49=BKR|56=IM|34=69|52=20100204-09:18:42|23=115685|28=N|55=SPMI.MI|54=2|44=2200.75|27=S|25=H|10=248|
8=FIX.4.4|9=122|35=D|34=70|49=CLIENT12|52=20100225-19:41:57.316|56=B|1=Marcel|11=13346|21=1|40=2|44=5|54=1|59=0|60=20100225-19:39:52.020|10=072|
8=FIX.4.4|9=42|35=0|49=A|56=B|34=71|52=20100304-07:59:30|10=185|
8=FIX.4.4|9=196|35=X|49=A|56=B|34=72|52=20100318-03:21:11.364|262=A|268=2|279=0|269=0|278=BID|55=EUR/USD|270=1.37215|15=EUR|271=2500000|346=1|279=0|269=1|278=OFFER|55=EUR/USD|270=1.37224|15=EUR|271=2503200|346=1|10=171|
8=FIX.4.4|9=122|35=D|34=73|49=CLIENT12|52=20100225-19:41:57.316|56=B|1=Marcel|11=13346|21=1|40=2|44=5|54=1|59=0|60=20100225-19:39:52.020|10=072|
8=FIX.4.4|9=117|35=AD|34=74|49=A|50=1|52=20100219-14:33:32.258|56=B|57=M|263=1|568=1|569=0|580=1|75=20100218|60=20100218-00:00:00.000|10=202|
8=FIX.4.4|9=94|35=3|34=75|49=A|50=U1|52=20100304-09:42:23.130|56=AB|128=B1|45=176|58=txt|371=15|372=X|373=1|10=058|
8=FIX.4.4|9=70|35=4|49=A|56=XYZ|34=76|52=20100302-19:38:21|43=Y|57=LOL|123=Y|36=175|10=192|
8=FIX.4.4|9=122|35=D|34=77|49=CLIENT12|52=20100225-19:41:57.316|56=B|1=Marcel|11=13346|21=1|40=2|44=5|54=1|59=0|60=20100225-19:39:52.020|10=072|
8=FIX.4.4|9=196|35=X|49=A|56=B|34=78|52=20100318-03:21:11.364|262=A|268=2|279=0|269=0|278=BID|55=EUR/USD|270=1.37215|15=EUR|271=2500000|346=1|279=0|269=1|278=OFFER|55=EUR/USD|270=1.37224|15=EUR|271=2503200|346=1|10=171|
8=FIX.4.4|9=97|35=6|49=BKR|56=IM|34=79|52=20100204-09:18:42|23=115685|28=N|55=SPMI.MI|54=2|44=2200.75|27=S|25=H|10=248|
8=FIX.4.4|9=122|35=D|34=80|49=CLIENT12|52=20100225-19:41:57.316|56=B|1=Marcel|11=13346|21=1|40=2|44=5|54=1|59=0|60=20100225-19:39:52.020|10=072|
8=FIX.4.4|9=42|35=0|49=A|56=B|34=81|52=20100304-07:59:30|10=185|
8=FIX.4.4|9=196|35=X|49=A|56=B|34=82|52=20100318-03:21:11.364|262=A|268=2|279=0|269=0|278=BID|55=EUR/USD|270=1.37215|15=EUR|271=2500000|346=1|279=0|269=1|278=OFFER|55=EUR/USD|270=1.37224|15=EUR|271=2503200|346=1|10=171|
8=FIX.4.4|9=122|35=D|34=83|49=CLIENT12|52=20100225-19:41:57.316|56=B|1=Marcel|11=13346|21=1|40=2|44=5|54=1|59=0|60=20100225-19:39:52.020|10=072|
8=FIX.4.4|9=117|35=AD|34=84|49=A|50=1|52=20100219-14:33:32.258|56=B|57=M|263=1|568=1|569=0|580=1|75=20100218|60=20100218-00:00:00.000|10=202|
8=FIX.4.4|9=94|35=3|34=85|49=A|50=U1|52=20100304-09:42:23.130|56=AB|128=B1|45=176|58=txt|371=15|372=X|373=1|10=058|
8=FIX.4.4|9=70|35=4|49=A|56=XYZ|34=86|52=20100302-19:38:21|43=Y|57=LOL|123=Y|36=175|10=192|
8=FIX.4.4|9=122|35=D|34=87|49=CLIENT12|52=20100225-19:41:57.316|56=B|1=Marcel|11=13346|21=1|40=2|44=5|54=1|59=0|60=20100225-19:39:52.020|10=072|
8=FIX.4.4|9=196|35=X|49=A|56=B|34=88|52=20100318-03:21:11.364|262=A|268=2|279=0|269=0|278=BID|55=EUR/USD|270=1.37215|15=EUR|271=2500000|346=1|279=0|269=1|278=OFFER|55=EUR/USD|270=1.37224|15=EUR|271=2503200|346=1|10=171|
8=FIX.4.4|9=97|35=6|49=BKR|56=IM|34=89|52=20100204-09:18:42|23=115685|28=N|55=SPMI.MI|54=2|44=2200.75|27=S|25=H|10=248|
8=FIX.4.4|9=122|35=D|34=90|49=CLIENT12|52=20100225-19:41:57.316|56=B|1=Marcel|11=13346|21=1|40=2|44=5|54=1|59=0|60=20100225-19:39:52.020|10=072|
8=FIX.4.4|9=42|35=0|49=A|56=B|34=91|52=20100304-07:59:30|10=185|
8=FIX.4.4|9=196|35=X|49=A|56=B|34=92|52=20100318-03:21:11.364|262=A|268=2|279=0|269=0|278=BID|55=EUR/USD|270=1.37215|15=EUR|271=2500000|346=1|279=0|269=1|278=OFFER|55=EUR/USD|270=1.37224|15=EUR|271=2503200|346=1|10=171|
8=FIX.4.4|9=122|35=D|34=93|49=CLIENT12|52=20100225-19:41:57.316|56=B|1=Marcel|11=13346|21=1|40=2|44=5|54=1|59=0|60=20100225-19:39:52.020|10=072|
8=FIX.4.4|9=117|35=AD|34=94|49=A|50=1|52=20100219-14:33:32.258|56=B|57=M|263=1|568=1|569=0|580=1|75=20100218|60=20100218-00:00:00.000|10=202|
8=FIX.4.4|9=94|35=3|34=95|49=A|50=U1|52=20100304-09:42:23.130|56=AB|128=B1|45=176|58=txt|371=15|372=X|373=1|10=058|
8=FIX.4.4|9=70|35=4|49=A|56=XYZ|34=96|52=20100302-19:38:21|43=Y|57=LOL|123=Y|36=175|10=192|
8=FIX.4.4|9=122|35=D|34=97|49=CLIENT12|52=20100225-19:41:57.316|56=B|1=Marcel|11=13346|21=1|40=2|44=5|54=1|59=0|60=20100225-19:39:52.020|10=072|
8=FIX.4.4|9=196|35=X|49=A|56=B|34=98|52=20100318-03:21:11.364|262=A|268=2|279=0|269=0|278=BID|55=EUR/USD|270=1.37215|15=EUR|271=2500000|346=1|279=0|269=1|278=OFFER|55=EUR/USD|270=1.37224|15=EUR|271=2503200|346=1|10=171|
8=FIX.4.4|9=97|35=6|49=BKR|56=IM|34=99|52=20100204-09:18:42|23=115685|28=N|55=SPMI.MI|54=2|44=2200.75|27=S|25=H|10=248|
8=FIX.4.4|9=122|35=D|34=100|49=CLIENT12|52=20100225-19:41:57.316|56=B|1=Marcel|11=13346|21=1|40=2|44=5|54=1|59=0|60=20100225-19:39:52.020|10=072|
8=FIX.4.4|9=42|35=0|49=A|56=B|34=101|52=20100304-07:59:30|10=185|
8=FIX.4.4|9=196|35=X|49=A|56=B|34=102|52=20100318-03:21:11.364|262=A|268=2|279=0|269=0|278=BID|55=EUR/USD|270=1.37215|15=EUR|271=2500000|346=1|279=0|269=1|278=OFFER|55=EUR/USD|270=1.37224|15=EUR|271=2503200|346=1|10=171|
8=FIX.4.4|9=122|35=D|34=103|49=CLIENT12|52=20100225-19:41:57.316|56=B|1=Marcel|11=13346|21=1|40=2|44=5|54=1|59=0|60=20100225-19:39:52.020|10=072|
8=FIX.4.4|9=117|35=AD|34=104|49=A|50=1|52=20100219-14:33:32.258|56=B|57=M|263=1|568=1|569=0|580=1|75=20100218|60=20100218-00:00:00.000|10=202|
8=FIX.4.4|9=94|35=3|34=105|49=A|50=U1|52=20100304-09:42:23.130|56=AB|128=B1|45=176|58=txt|371=15|372=X|373=1|10=058|
8=FIX.4.4|9=70|35=4|49=A|56=XYZ|34=106|52=20100302-19:38:21|43=Y|57=LOL|123=Y|36=175|10=192|
8=FIX.4.4|9=122|35=D|34=107|49=CLIENT12|52=20100225-19:41:57.316|56=B|1=Marcel|11=13346|21=1|40=2|44=5|54=1|59=0|60=20100225-19:39:52.020|10=072|
8=FIX.4.4|9=196|35=X|49=A|56=B|34=108|52=20100318-03:21:11.364|262=A|268=2|279=0|269=0|278=BID|55=EUR/USD|270=1.37215|15=EUR|271=2500000|346=1|279=0|269=1|278=OFFER|55=EUR/USD|270=1.37224|15=EUR|271=2503200|346=1|10=171|
8=FIX.4.4|9=97|35=6|49=BKR|56=IM|34=109|52=20100204-09:18:42|23=115685|28=N|55=SPMI.MI|54=2|44=2200.75|27=S|25=H|10=248|
8=FIX.4.4|9=122|35=D|34=110|49=CLIENT12|52=20100225-19:41:57.316|56=B|1=Marcel|11=13346|21=1|40=2|44=5|54=1|59=0|60=20100225-19:39:52.020|10=072|
8=FIX.4.4|9=42|35=0|49=A|56=B|34=111|52=20100304-07:59:30|10=185|
8=FIX.4.4|9=196|35=X|49=A|56=B|34=112|52=20100318-03:21:11.364|262=A|268=2|279=0|269=0|278=BID|55=EUR/USD|270=1.37215|15=EUR|271=2500000|346=1|279=0|269=1|278=OFFER|55=EUR/USD|270=1.37224|15=EUR|271=2503200|346=1|10=171|
8=FIX.4.4|9=122|35=D|34=113|49=CLIENT12|52=20100225-19:41:57.316|56=B|1=Marcel|11=13346|21=1|40=2|44=5|54=1|59=0|60=20100225-19:39:52.020|10=072|
8=FIX.4.4|9=117|35=AD|34=114|49=A|50=1|52=20100219-14:33:32.258|56=B|57=M|263=1|568=1|569=0|580=1|75=20100218|60=20100218-00:00:00.000|10=202|
8=FIX.4.4|9=94|35=3|34=115|49=A|50=U1|52=20100304-09:42:23.130|56=AB|128=B1|45=176|58=txt|371=15|372=X|373=1|10=058|
8=FIX.4.4|9=70|35=4|49=A|56=XYZ|34=116|52=20100302-19:38:21|43=Y|57=LOL|123=Y|36=175|10=192|
8=FIX.4.4|9=122|35=D|34=117|49=CLIENT12|52=20100225-19:41:57.316|56=B|1=Marcel|11=13346|21=1|40=2|44=5|54=1|59=0|60=20100225-19:39:52.020|10=072|
8=FIX.4.4|9=196|35=X|49=A|56=B|34=118|52=20100318-03:21:11.364|262=A|268=2|279=0|269=0|278=BID|55=EUR/USD|270=1.37215|15=EUR|271=2500000|346=1|279=0|269=1|278=OFFER|55=EUR/USD|270=1.37224|15=EUR|271=2503200|346=1|10=171|
8=FIX.4.4|9=97|35=6|49=BKR|56=IM|34=119|52=20100204-09:18:42|23=115685|28=N|55=SPMI.MI|54=2|44=2200.75|27=S|25=H|10=248|
8=FIX.4.4|9=122|35=D|34=120|49=CLIENT12|52=20100225-19:41:57.316|56=B|1=Marcel|11=13346|21=1|40=2|44=5|54=1|59=0|60=20100225-19:39:52.020|10=072|
8=FIX.4.4|9=42|35=0|49=A|56=B|34=121|52=20100304-07:59:30|10=185|
8=FIX.4.4|9=196|35=X|49=A|56=B|34=122|52=20100318-03:21:11.364|262=A|268=2|279=0|269=0|278=BID|55=EUR/USD|270=1.37215|15=EUR|271=2500000|346=1|279=0|269=1|278=OFFER|55=EUR/USD|270=1.37224|15=EUR|271=2503200|346=1|10=171|
8=FIX.4.4|9=122|35=D|34=123|49=CLIENT12|52=20100225-19:41:57.316|56=B|1=Marcel|11=13346|21=1|40=2|44=5|54=1|59=0|60=20100225-19:39:52.020|10=072|
8=FIX.4.4|9=117|35=AD|34=124|49=A|50=1|52=20100219-14:33:32.258|56=B|57=M|263=1|568=1|569=0|580=1|75=20100218|60=20100218-00:00:00.000|10=202|
8=FIX.4.4|9=94|35=3|34=125|49=A|50=U1|52=20100304-09:42:23.130|56=AB|128=B1|45=176|58=txt|371=15|372=X|373=1|10=058|
8=FIX.4.4|9=70|35=4|49=A|56=XYZ|34=126|52=20100302-19:38:21|43=Y|57=LOL|123=Y|36=175|10=192|
8=FIX.4.4|9=122|35=D|34=127|49=CLIENT12|52=20100225-19:41:57.316|56=B|1=Marcel|11=13346|21=1|40=2|44=5|54=1|59=0|60=20100225-19:39:52.020|10=072|
8=FIX.4.4|9=196|35=X|49=A|56=B|34=128|52=20100318-03:21:11.364|262=A|268=2|279=0|269=0|278=BID|55=EUR/USD|270=1.37215|15=EUR|271=2500000|346=1|279=0|269=1|278=OFFER|55=EUR/USD|270=1.37224|15=EUR|271=2503200|346=1|10=171|
8=FIX.4.4|9=97|35=6|49=BKR|56=IM|34=129|52=20100204-09:18:42|23=115685|28=N|55=SPMI.MI|54=2|44=2200.75|27=S|25=H|10=248|
8=FIX.4.4|9=122|35=D|34=130|49=CLIENT12|52=20100225-19:41:57.316|56=B|1=Marcel|11=13346|21=1|40=2|44=5|54=1|59=0|60=20100225-19:39:52.020|10=072|
